{
  "_format": "hh-sol-artifact-1",
  "contractName": "StubMaker",
  "sourceName": "contracts/StubMaker.sol",
  "abi": [
    {
      "inputs": [
        {
          "internalType": "string",
          "name": "name_",
          "type": "string"
        },
        {
          "internalType": "string",
          "name": "symbol_",
          "type": "string"
        },
        {
          "internalType": "uint256",
          "name": "maxTokenId_",
          "type": "uint256"
        }
      ],
      "stateMutability": "nonpayable",
      "type": "constructor"
    },
    {
      "anonymous": false,
      "inputs": [
        {
          "indexed": true,
          "internalType": "address",
          "name": "owner",
          "type": "address"
        },
        {
          "indexed": true,
          "internalType": "address",
          "name": "approved",
          "type": "address"
        },
        {
          "indexed": true,
          "internalType": "uint256",
          "name": "tokenId",
          "type": "uint256"
        }
      ],
      "name": "Approval",
      "type": "event"
    },
    {
      "anonymous": false,
      "inputs": [
        {
          "indexed": true,
          "internalType": "address",
          "name": "owner",
          "type": "address"
        },
        {
          "indexed": true,
          "internalType": "address",
          "name": "operator",
          "type": "address"
        },
        {
          "indexed": false,
          "internalType": "bool",
          "name": "approved",
          "type": "bool"
        }
      ],
      "name": "ApprovalForAll",
      "type": "event"
    },
    {
      "anonymous": false,
      "inputs": [
        {
          "indexed": true,
          "internalType": "address",
          "name": "previousOwner",
          "type": "address"
        },
        {
          "indexed": true,
          "internalType": "address",
          "name": "newOwner",
          "type": "address"
        }
      ],
      "name": "OwnershipTransferred",
      "type": "event"
    },
    {
      "anonymous": false,
      "inputs": [
        {
          "indexed": true,
          "internalType": "address",
          "name": "from",
          "type": "address"
        },
        {
          "indexed": true,
          "internalType": "address",
          "name": "to",
          "type": "address"
        },
        {
          "indexed": true,
          "internalType": "uint256",
          "name": "tokenId",
          "type": "uint256"
        }
      ],
      "name": "Transfer",
      "type": "event"
    },
    {
      "inputs": [
        {
          "internalType": "address",
          "name": "to",
          "type": "address"
        },
        {
          "internalType": "uint256",
          "name": "tokenId",
          "type": "uint256"
        }
      ],
      "name": "approve",
      "outputs": [],
      "stateMutability": "nonpayable",
      "type": "function"
    },
    {
      "inputs": [
        {
          "internalType": "address",
          "name": "owner",
          "type": "address"
        }
      ],
      "name": "balanceOf",
      "outputs": [
        {
          "internalType": "uint256",
          "name": "",
          "type": "uint256"
        }
      ],
      "stateMutability": "view",
      "type": "function"
    },
    {
      "inputs": [
        {
          "internalType": "uint256",
          "name": "tokenId",
          "type": "uint256"
        }
      ],
      "name": "getApproved",
      "outputs": [
        {
          "internalType": "address",
          "name": "",
          "type": "address"
        }
      ],
      "stateMutability": "view",
      "type": "function"
    },
    {
      "inputs": [
        {
          "internalType": "address",
          "name": "owner",
          "type": "address"
        },
        {
          "internalType": "address",
          "name": "operator",
          "type": "address"
        }
      ],
      "name": "isApprovedForAll",
      "outputs": [
        {
          "internalType": "bool",
          "name": "",
          "type": "bool"
        }
      ],
      "stateMutability": "view",
      "type": "function"
    },
    {
      "inputs": [],
      "name": "maxTokenId",
      "outputs": [
        {
          "internalType": "uint256",
          "name": "",
          "type": "uint256"
        }
      ],
      "stateMutability": "view",
      "type": "function"
    },
    {
      "inputs": [
        {
          "internalType": "address",
          "name": "toOwner",
          "type": "address"
        }
      ],
      "name": "mint",
      "outputs": [
        {
          "internalType": "uint256",
          "name": "",
          "type": "uint256"
        }
      ],
      "stateMutability": "payable",
      "type": "function"
    },
    {
      "inputs": [],
      "name": "name",
      "outputs": [
        {
          "internalType": "string",
          "name": "",
          "type": "string"
        }
      ],
      "stateMutability": "view",
      "type": "function"
    },
    {
      "inputs": [],
      "name": "owner",
      "outputs": [
        {
          "internalType": "address",
          "name": "",
          "type": "address"
        }
      ],
      "stateMutability": "view",
      "type": "function"
    },
    {
      "inputs": [
        {
          "internalType": "uint256",
          "name": "tokenId",
          "type": "uint256"
        }
      ],
      "name": "ownerOf",
      "outputs": [
        {
          "internalType": "address",
          "name": "",
          "type": "address"
        }
      ],
      "stateMutability": "view",
      "type": "function"
    },
    {
      "inputs": [],
      "name": "renounceOwnership",
      "outputs": [],
      "stateMutability": "nonpayable",
      "type": "function"
    },
    {
      "inputs": [
        {
          "internalType": "address",
          "name": "from",
          "type": "address"
        },
        {
          "internalType": "address",
          "name": "to",
          "type": "address"
        },
        {
          "internalType": "uint256",
          "name": "tokenId",
          "type": "uint256"
        }
      ],
      "name": "safeTransferFrom",
      "outputs": [],
      "stateMutability": "nonpayable",
      "type": "function"
    },
    {
      "inputs": [
        {
          "internalType": "address",
          "name": "from",
          "type": "address"
        },
        {
          "internalType": "address",
          "name": "to",
          "type": "address"
        },
        {
          "internalType": "uint256",
          "name": "tokenId",
          "type": "uint256"
        },
        {
          "internalType": "bytes",
          "name": "_data",
          "type": "bytes"
        }
      ],
      "name": "safeTransferFrom",
      "outputs": [],
      "stateMutability": "nonpayable",
      "type": "function"
    },
    {
      "inputs": [
        {
          "internalType": "address",
          "name": "operator",
          "type": "address"
        },
        {
          "internalType": "bool",
          "name": "approved",
          "type": "bool"
        }
      ],
      "name": "setApprovalForAll",
      "outputs": [],
      "stateMutability": "nonpayable",
      "type": "function"
    },
    {
      "inputs": [
        {
          "internalType": "bytes4",
          "name": "interfaceId",
          "type": "bytes4"
        }
      ],
      "name": "supportsInterface",
      "outputs": [
        {
          "internalType": "bool",
          "name": "",
          "type": "bool"
        }
      ],
      "stateMutability": "view",
      "type": "function"
    },
    {
      "inputs": [],
      "name": "symbol",
      "outputs": [
        {
          "internalType": "string",
          "name": "",
          "type": "string"
        }
      ],
      "stateMutability": "view",
      "type": "function"
    },
    {
      "inputs": [],
      "name": "tokenIds",
      "outputs": [
        {
          "internalType": "uint256",
          "name": "",
          "type": "uint256"
        }
      ],
      "stateMutability": "view",
      "type": "function"
    },
    {
      "inputs": [
        {
          "internalType": "uint256",
          "name": "tokenId",
          "type": "uint256"
        }
      ],
      "name": "tokenURI",
      "outputs": [
        {
          "internalType": "string",
          "name": "",
          "type": "string"
        }
      ],
      "stateMutability": "view",
      "type": "function"
    },
    {
      "inputs": [
        {
          "internalType": "address",
          "name": "from",
          "type": "address"
        },
        {
          "internalType": "address",
          "name": "to",
          "type": "address"
        },
        {
          "internalType": "uint256",
          "name": "tokenId",
          "type": "uint256"
        }
      ],
      "name": "transferFrom",
      "outputs": [],
      "stateMutability": "nonpayable",
      "type": "function"
    },
    {
      "inputs": [
        {
          "internalType": "address",
          "name": "newOwner",
          "type": "address"
        }
      ],
      "name": "transferOwnership",
      "outputs": [],
      "stateMutability": "nonpayable",
      "type": "function"
    }
  ],
  "bytecode": "0x60806040523480156200001157600080fd5b506040516200334f3803806200334f8339818101604052810190620000379190620002a4565b82828160009080519060200190620000519291906200016b565b5080600190805190602001906200006a9291906200016b565b5050506200008d620000816200009d60201b60201c565b620000a560201b60201c565b80600781905550505050620004c0565b600033905090565b6000600660009054906101000a900473ffffffffffffffffffffffffffffffffffffffff16905081600660006101000a81548173ffffffffffffffffffffffffffffffffffffffff021916908373ffffffffffffffffffffffffffffffffffffffff1602179055508173ffffffffffffffffffffffffffffffffffffffff168173ffffffffffffffffffffffffffffffffffffffff167f8be0079c531659141344cd1fd0a4f28419497f9722a3daafe3b4186f6b6457e060405160405180910390a35050565b8280546200017990620003cb565b90600052602060002090601f0160209004810192826200019d5760008555620001e9565b82601f10620001b857805160ff1916838001178555620001e9565b82800160010185558215620001e9579182015b82811115620001e8578251825591602001919060010190620001cb565b5b509050620001f89190620001fc565b5090565b5b8082111562000217576000816000905550600101620001fd565b5090565b6000620002326200022c8462000355565b6200032c565b9050828152602081018484840111156200024b57600080fd5b6200025884828562000395565b509392505050565b600082601f8301126200027257600080fd5b8151620002848482602086016200021b565b91505092915050565b6000815190506200029e81620004a6565b92915050565b600080600060608486031215620002ba57600080fd5b600084015167ffffffffffffffff811115620002d557600080fd5b620002e38682870162000260565b935050602084015167ffffffffffffffff8111156200030157600080fd5b6200030f8682870162000260565b925050604062000322868287016200028d565b9150509250925092565b6000620003386200034b565b905062000346828262000401565b919050565b6000604051905090565b600067ffffffffffffffff82111562000373576200037262000466565b5b6200037e8262000495565b9050602081019050919050565b6000819050919050565b60005b83811015620003b557808201518184015260208101905062000398565b83811115620003c5576000848401525b50505050565b60006002820490506001821680620003e457607f821691505b60208210811415620003fb57620003fa62000437565b5b50919050565b6200040c8262000495565b810181811067ffffffffffffffff821117156200042e576200042d62000466565b5b80604052505050565b7f4e487b7100000000000000000000000000000000000000000000000000000000600052602260045260246000fd5b7f4e487b7100000000000000000000000000000000000000000000000000000000600052604160045260246000fd5b6000601f19601f8301169050919050565b620004b1816200038b565b8114620004bd57600080fd5b50565b612e7f80620004d06000396000f3fe6080604052600436106101145760003560e01c8063714cff56116100a0578063a22cb46511610064578063a22cb465146103a6578063b88d4fde146103cf578063c87b56dd146103f8578063e985e9c514610435578063f2fde38b1461047257610114565b8063714cff56146102e3578063715018a61461030e5780638da5cb5b1461032557806391ba317a1461035057806395d89b411461037b57610114565b806323b872dd116100e757806323b872dd146101e757806342842e0e146102105780636352211e146102395780636a6278421461027657806370a08231146102a657610114565b806301ffc9a71461011957806306fdde0314610156578063081812fc14610181578063095ea7b3146101be575b600080fd5b34801561012557600080fd5b50610140600480360381019061013b9190611eb2565b61049b565b60405161014d91906122db565b60405180910390f35b34801561016257600080fd5b5061016b61057d565b60405161017891906122f6565b60405180910390f35b34801561018d57600080fd5b506101a860048036038101906101a39190611f04565b61060f565b6040516101b59190612274565b60405180910390f35b3480156101ca57600080fd5b506101e560048036038101906101e09190611e76565b610694565b005b3480156101f357600080fd5b5061020e60048036038101906102099190611d70565b6107ac565b005b34801561021c57600080fd5b5061023760048036038101906102329190611d70565b61080c565b005b34801561024557600080fd5b50610260600480360381019061025b9190611f04565b61082c565b60405161026d9190612274565b60405180910390f35b610290600480360381019061028b9190611d0b565b6108de565b60405161029d9190612576565b60405180910390f35b3480156102b257600080fd5b506102cd60048036038101906102c89190611d0b565b610979565b6040516102da9190612576565b60405180910390f35b3480156102ef57600080fd5b506102f8610a31565b6040516103059190612576565b60405180910390f35b34801561031a57600080fd5b50610323610a37565b005b34801561033157600080fd5b5061033a610abf565b6040516103479190612274565b60405180910390f35b34801561035c57600080fd5b50610365610ae9565b6040516103729190612576565b60405180910390f35b34801561038757600080fd5b50610390610aef565b60405161039d91906122f6565b60405180910390f35b3480156103b257600080fd5b506103cd60048036038101906103c89190611e3a565b610b81565b005b3480156103db57600080fd5b506103f660048036038101906103f19190611dbf565b610b97565b005b34801561040457600080fd5b5061041f600480360381019061041a9190611f04565b610bf9565b60405161042c91906122f6565b60405180910390f35b34801561044157600080fd5b5061045c60048036038101906104579190611d34565b610ca0565b60405161046991906122db565b60405180910390f35b34801561047e57600080fd5b5061049960048036038101906104949190611d0b565b610d34565b005b60007f80ac58cd000000000000000000000000000000000000000000000000000000007bffffffffffffffffffffffffffffffffffffffffffffffffffffffff1916827bffffffffffffffffffffffffffffffffffffffffffffffffffffffff1916148061056657507f5b5e139f000000000000000000000000000000000000000000000000000000007bffffffffffffffffffffffffffffffffffffffffffffffffffffffff1916827bffffffffffffffffffffffffffffffffffffffffffffffffffffffff1916145b80610576575061057582610e2c565b5b9050919050565b60606000805461058c9061279b565b80601f01602080910402602001604051908101604052809291908181526020018280546105b89061279b565b80156106055780601f106105da57610100808354040283529160200191610605565b820191906000526020600020905b8154815290600101906020018083116105e857829003601f168201915b5050505050905090565b600061061a82610e96565b610659576040517f08c379a0000000000000000000000000000000000000000000000000000000008152600401610650906124d6565b60405180910390fd5b6004600083815260200190815260200160002060009054906101000a900473ffffffffffffffffffffffffffffffffffffffff169050919050565b600061069f8261082c565b90508073ffffffffffffffffffffffffffffffffffffffff168373ffffffffffffffffffffffffffffffffffffffff161415610710576040517f08c379a000000000000000000000000000000000000000000000000000000000815260040161070790612536565b60405180910390fd5b8073ffffffffffffffffffffffffffffffffffffffff1661072f610f02565b73ffffffffffffffffffffffffffffffffffffffff16148061075e575061075d81610758610f02565b610ca0565b5b61079d576040517f08c379a000000000000000000000000000000000000000000000000000000000815260040161079490612456565b60405180910390fd5b6107a78383610f0a565b505050565b6107bd6107b7610f02565b82610fc3565b6107fc576040517f08c379a00000000000000000000000000000000000000000000000000000000081526004016107f390612556565b60405180910390fd5b6108078383836110a1565b505050565b61082783838360405180602001604052806000815250610b97565b505050565b6000806002600084815260200190815260200160002060009054906101000a900473ffffffffffffffffffffffffffffffffffffffff169050600073ffffffffffffffffffffffffffffffffffffffff168173ffffffffffffffffffffffffffffffffffffffff1614156108d5576040517f08c379a00000000000000000000000000000000000000000000000000000000081526004016108cc90612496565b60405180910390fd5b80915050919050565b600060075460085410610926576040517f08c379a000000000000000000000000000000000000000000000000000000000815260040161091d90612416565b60405180910390fd5b610949604051806060016040528060278152602001612e23602791393334611308565b60016008600082825461095c919061262a565b9250508190555061096f826008546113a7565b6008549050919050565b60008073ffffffffffffffffffffffffffffffffffffffff168273ffffffffffffffffffffffffffffffffffffffff1614156109ea576040517f08c379a00000000000000000000000000000000000000000000000000000000081526004016109e190612476565b60405180910390fd5b600360008373ffffffffffffffffffffffffffffffffffffffff1673ffffffffffffffffffffffffffffffffffffffff168152602001908152602001600020549050919050565b60085481565b610a3f610f02565b73ffffffffffffffffffffffffffffffffffffffff16610a5d610abf565b73ffffffffffffffffffffffffffffffffffffffff1614610ab3576040517f08c379a0000000000000000000000000000000000000000000000000000000008152600401610aaa906124f6565b60405180910390fd5b610abd60006113c5565b565b6000600660009054906101000a900473ffffffffffffffffffffffffffffffffffffffff16905090565b60075481565b606060018054610afe9061279b565b80601f0160208091040260200160405190810160405280929190818152602001828054610b2a9061279b565b8015610b775780601f10610b4c57610100808354040283529160200191610b77565b820191906000526020600020905b815481529060010190602001808311610b5a57829003601f168201915b5050505050905090565b610b93610b8c610f02565b838361148b565b5050565b610ba8610ba2610f02565b83610fc3565b610be7576040517f08c379a0000000000000000000000000000000000000000000000000000000008152600401610bde90612556565b60405180910390fd5b610bf3848484846115f8565b50505050565b6060610c0482610e96565b610c43576040517f08c379a0000000000000000000000000000000000000000000000000000000008152600401610c3a90612516565b60405180910390fd5b6000610c4d611654565b90506000815111610c6d5760405180602001604052806000815250610c98565b80610c778461166b565b604051602001610c88929190612250565b6040516020818303038152906040525b915050919050565b6000600560008473ffffffffffffffffffffffffffffffffffffffff1673ffffffffffffffffffffffffffffffffffffffff16815260200190815260200160002060008373ffffffffffffffffffffffffffffffffffffffff1673ffffffffffffffffffffffffffffffffffffffff16815260200190815260200160002060009054906101000a900460ff16905092915050565b610d3c610f02565b73ffffffffffffffffffffffffffffffffffffffff16610d5a610abf565b73ffffffffffffffffffffffffffffffffffffffff1614610db0576040517f08c379a0000000000000000000000000000000000000000000000000000000008152600401610da7906124f6565b60405180910390fd5b600073ffffffffffffffffffffffffffffffffffffffff168173ffffffffffffffffffffffffffffffffffffffff161415610e20576040517f08c379a0000000000000000000000000000000000000000000000000000000008152600401610e1790612376565b60405180910390fd5b610e29816113c5565b50565b60007f01ffc9a7000000000000000000000000000000000000000000000000000000007bffffffffffffffffffffffffffffffffffffffffffffffffffffffff1916827bffffffffffffffffffffffffffffffffffffffffffffffffffffffff1916149050919050565b60008073ffffffffffffffffffffffffffffffffffffffff166002600084815260200190815260200160002060009054906101000a900473ffffffffffffffffffffffffffffffffffffffff1673ffffffffffffffffffffffffffffffffffffffff1614159050919050565b600033905090565b816004600083815260200190815260200160002060006101000a81548173ffffffffffffffffffffffffffffffffffffffff021916908373ffffffffffffffffffffffffffffffffffffffff160217905550808273ffffffffffffffffffffffffffffffffffffffff16610f7d8361082c565b73ffffffffffffffffffffffffffffffffffffffff167f8c5be1e5ebec7d5bd14f71427d1e84f3dd0314c0f7b2291e5b200ac8c7c3b92560405160405180910390a45050565b6000610fce82610e96565b61100d576040517f08c379a000000000000000000000000000000000000000000000000000000000815260040161100490612436565b60405180910390fd5b60006110188361082c565b90508073ffffffffffffffffffffffffffffffffffffffff168473ffffffffffffffffffffffffffffffffffffffff16148061105a57506110598185610ca0565b5b8061109857508373ffffffffffffffffffffffffffffffffffffffff166110808461060f565b73ffffffffffffffffffffffffffffffffffffffff16145b91505092915050565b8273ffffffffffffffffffffffffffffffffffffffff166110c18261082c565b73ffffffffffffffffffffffffffffffffffffffff1614611117576040517f08c379a000000000000000000000000000000000000000000000000000000000815260040161110e90612396565b60405180910390fd5b600073ffffffffffffffffffffffffffffffffffffffff168273ffffffffffffffffffffffffffffffffffffffff161415611187576040517f08c379a000000000000000000000000000000000000000000000000000000000815260040161117e906123d6565b60405180910390fd5b611192838383611818565b61119d600082610f0a565b6001600360008573ffffffffffffffffffffffffffffffffffffffff1673ffffffffffffffffffffffffffffffffffffffff16815260200190815260200160002060008282546111ed91906126b1565b925050819055506001600360008473ffffffffffffffffffffffffffffffffffffffff1673ffffffffffffffffffffffffffffffffffffffff1681526020019081526020016000206000828254611244919061262a565b92505081905550816002600083815260200190815260200160002060006101000a81548173ffffffffffffffffffffffffffffffffffffffff021916908373ffffffffffffffffffffffffffffffffffffffff160217905550808273ffffffffffffffffffffffffffffffffffffffff168473ffffffffffffffffffffffffffffffffffffffff167fddf252ad1be2c89b69c2b068fc378daa952ba7f163c4a11628f55a4df523b3ef60405160405180910390a461130383838361181d565b505050565b6113a283838360405160240161132093929190612318565b6040516020818303038152906040527f07c81217000000000000000000000000000000000000000000000000000000007bffffffffffffffffffffffffffffffffffffffffffffffffffffffff19166020820180517bffffffffffffffffffffffffffffffffffffffffffffffffffffffff8381831617835250505050611822565b505050565b6113c182826040518060200160405280600081525061184b565b5050565b6000600660009054906101000a900473ffffffffffffffffffffffffffffffffffffffff16905081600660006101000a81548173ffffffffffffffffffffffffffffffffffffffff021916908373ffffffffffffffffffffffffffffffffffffffff1602179055508173ffffffffffffffffffffffffffffffffffffffff168173ffffffffffffffffffffffffffffffffffffffff167f8be0079c531659141344cd1fd0a4f28419497f9722a3daafe3b4186f6b6457e060405160405180910390a35050565b8173ffffffffffffffffffffffffffffffffffffffff168373ffffffffffffffffffffffffffffffffffffffff1614156114fa576040517f08c379a00000000000000000000000000000000000000000000000000000000081526004016114f1906123f6565b60405180910390fd5b80600560008573ffffffffffffffffffffffffffffffffffffffff1673ffffffffffffffffffffffffffffffffffffffff16815260200190815260200160002060008473ffffffffffffffffffffffffffffffffffffffff1673ffffffffffffffffffffffffffffffffffffffff16815260200190815260200160002060006101000a81548160ff0219169083151502179055508173ffffffffffffffffffffffffffffffffffffffff168373ffffffffffffffffffffffffffffffffffffffff167f17307eab39ab6107e8899845ad3d59bd9653f200f220920489ca2b5937696c31836040516115eb91906122db565b60405180910390a3505050565b6116038484846110a1565b61160f848484846118a6565b61164e576040517f08c379a000000000000000000000000000000000000000000000000000000000815260040161164590612356565b60405180910390fd5b50505050565b606060405180602001604052806000815250905090565b606060008214156116b3576040518060400160405280600181526020017f30000000000000000000000000000000000000000000000000000000000000008152509050611813565b600082905060005b600082146116e55780806116ce906127fe565b915050600a826116de9190612680565b91506116bb565b60008167ffffffffffffffff811115611727577f4e487b7100000000000000000000000000000000000000000000000000000000600052604160045260246000fd5b6040519080825280601f01601f1916602001820160405280156117595781602001600182028036833780820191505090505b5090505b6000851461180c5760018261177291906126b1565b9150600a856117819190612847565b603061178d919061262a565b60f81b8183815181106117c9577f4e487b7100000000000000000000000000000000000000000000000000000000600052603260045260246000fd5b60200101907effffffffffffffffffffffffffffffffffffffffffffffffffffffffffffff1916908160001a905350600a856118059190612680565b945061175d565b8093505050505b919050565b505050565b505050565b60008151905060006a636f6e736f6c652e6c6f679050602083016000808483855afa5050505050565b6118558383611a3d565b61186260008484846118a6565b6118a1576040517f08c379a000000000000000000000000000000000000000000000000000000000815260040161189890612356565b60405180910390fd5b505050565b60006118c78473ffffffffffffffffffffffffffffffffffffffff16611c17565b15611a30578373ffffffffffffffffffffffffffffffffffffffff1663150b7a026118f0610f02565b8786866040518563ffffffff1660e01b8152600401611912949392919061228f565b602060405180830381600087803b15801561192c57600080fd5b505af192505050801561195d57506040513d601f19601f8201168201806040525081019061195a9190611edb565b60015b6119e0573d806000811461198d576040519150601f19603f3d011682016040523d82523d6000602084013e611992565b606091505b506000815114156119d8576040517f08c379a00000000000000000000000000000000000000000000000000000000081526004016119cf90612356565b60405180910390fd5b805181602001fd5b63150b7a0260e01b7bffffffffffffffffffffffffffffffffffffffffffffffffffffffff1916817bffffffffffffffffffffffffffffffffffffffffffffffffffffffff191614915050611a35565b600190505b949350505050565b600073ffffffffffffffffffffffffffffffffffffffff168273ffffffffffffffffffffffffffffffffffffffff161415611aad576040517f08c379a0000000000000000000000000000000000000000000000000000000008152600401611aa4906124b6565b60405180910390fd5b611ab681610e96565b15611af6576040517f08c379a0000000000000000000000000000000000000000000000000000000008152600401611aed906123b6565b60405180910390fd5b611b0260008383611818565b6001600360008473ffffffffffffffffffffffffffffffffffffffff1673ffffffffffffffffffffffffffffffffffffffff1681526020019081526020016000206000828254611b52919061262a565b92505081905550816002600083815260200190815260200160002060006101000a81548173ffffffffffffffffffffffffffffffffffffffff021916908373ffffffffffffffffffffffffffffffffffffffff160217905550808273ffffffffffffffffffffffffffffffffffffffff16600073ffffffffffffffffffffffffffffffffffffffff167fddf252ad1be2c89b69c2b068fc378daa952ba7f163c4a11628f55a4df523b3ef60405160405180910390a4611c136000838361181d565b5050565b6000808273ffffffffffffffffffffffffffffffffffffffff163b119050919050565b6000611c4d611c48846125b6565b612591565b905082815260208101848484011115611c6557600080fd5b611c70848285612759565b509392505050565b600081359050611c8781612dc6565b92915050565b600081359050611c9c81612ddd565b92915050565b600081359050611cb181612df4565b92915050565b600081519050611cc681612df4565b92915050565b600082601f830112611cdd57600080fd5b8135611ced848260208601611c3a565b91505092915050565b600081359050611d0581612e0b565b92915050565b600060208284031215611d1d57600080fd5b6000611d2b84828501611c78565b91505092915050565b60008060408385031215611d4757600080fd5b6000611d5585828601611c78565b9250506020611d6685828601611c78565b9150509250929050565b600080600060608486031215611d8557600080fd5b6000611d9386828701611c78565b9350506020611da486828701611c78565b9250506040611db586828701611cf6565b9150509250925092565b60008060008060808587031215611dd557600080fd5b6000611de387828801611c78565b9450506020611df487828801611c78565b9350506040611e0587828801611cf6565b925050606085013567ffffffffffffffff811115611e2257600080fd5b611e2e87828801611ccc565b91505092959194509250565b60008060408385031215611e4d57600080fd5b6000611e5b85828601611c78565b9250506020611e6c85828601611c8d565b9150509250929050565b60008060408385031215611e8957600080fd5b6000611e9785828601611c78565b9250506020611ea885828601611cf6565b9150509250929050565b600060208284031215611ec457600080fd5b6000611ed284828501611ca2565b91505092915050565b600060208284031215611eed57600080fd5b6000611efb84828501611cb7565b91505092915050565b600060208284031215611f1657600080fd5b6000611f2484828501611cf6565b91505092915050565b611f36816126e5565b82525050565b611f45816126f7565b82525050565b6000611f56826125e7565b611f6081856125fd565b9350611f70818560208601612768565b611f7981612934565b840191505092915050565b6000611f8f826125f2565b611f99818561260e565b9350611fa9818560208601612768565b611fb281612934565b840191505092915050565b6000611fc8826125f2565b611fd2818561261f565b9350611fe2818560208601612768565b80840191505092915050565b6000611ffb60328361260e565b915061200682612945565b604082019050919050565b600061201e60268361260e565b915061202982612994565b604082019050919050565b600061204160258361260e565b915061204c826129e3565b604082019050919050565b6000612064601c8361260e565b915061206f82612a32565b602082019050919050565b600061208760248361260e565b915061209282612a5b565b604082019050919050565b60006120aa60198361260e565b91506120b582612aaa565b602082019050919050565b60006120cd60158361260e565b91506120d882612ad3565b602082019050919050565b60006120f0602c8361260e565b91506120fb82612afc565b604082019050919050565b600061211360388361260e565b915061211e82612b4b565b604082019050919050565b6000612136602a8361260e565b915061214182612b9a565b604082019050919050565b600061215960298361260e565b915061216482612be9565b604082019050919050565b600061217c60208361260e565b915061218782612c38565b602082019050919050565b600061219f602c8361260e565b91506121aa82612c61565b604082019050919050565b60006121c260208361260e565b91506121cd82612cb0565b602082019050919050565b60006121e5602f8361260e565b91506121f082612cd9565b604082019050919050565b600061220860218361260e565b915061221382612d28565b604082019050919050565b600061222b60318361260e565b915061223682612d77565b604082019050919050565b61224a8161274f565b82525050565b600061225c8285611fbd565b91506122688284611fbd565b91508190509392505050565b60006020820190506122896000830184611f2d565b92915050565b60006080820190506122a46000830187611f2d565b6122b16020830186611f2d565b6122be6040830185612241565b81810360608301526122d08184611f4b565b905095945050505050565b60006020820190506122f06000830184611f3c565b92915050565b600060208201905081810360008301526123108184611f84565b905092915050565b600060608201905081810360008301526123328186611f84565b90506123416020830185611f2d565b61234e6040830184612241565b949350505050565b6000602082019050818103600083015261236f81611fee565b9050919050565b6000602082019050818103600083015261238f81612011565b9050919050565b600060208201905081810360008301526123af81612034565b9050919050565b600060208201905081810360008301526123cf81612057565b9050919050565b600060208201905081810360008301526123ef8161207a565b9050919050565b6000602082019050818103600083015261240f8161209d565b9050919050565b6000602082019050818103600083015261242f816120c0565b9050919050565b6000602082019050818103600083015261244f816120e3565b9050919050565b6000602082019050818103600083015261246f81612106565b9050919050565b6000602082019050818103600083015261248f81612129565b9050919050565b600060208201905081810360008301526124af8161214c565b9050919050565b600060208201905081810360008301526124cf8161216f565b9050919050565b600060208201905081810360008301526124ef81612192565b9050919050565b6000602082019050818103600083015261250f816121b5565b9050919050565b6000602082019050818103600083015261252f816121d8565b9050919050565b6000602082019050818103600083015261254f816121fb565b9050919050565b6000602082019050818103600083015261256f8161221e565b9050919050565b600060208201905061258b6000830184612241565b92915050565b600061259b6125ac565b90506125a782826127cd565b919050565b6000604051905090565b600067ffffffffffffffff8211156125d1576125d0612905565b5b6125da82612934565b9050602081019050919050565b600081519050919050565b600081519050919050565b600082825260208201905092915050565b600082825260208201905092915050565b600081905092915050565b60006126358261274f565b91506126408361274f565b9250827fffffffffffffffffffffffffffffffffffffffffffffffffffffffffffffffff0382111561267557612674612878565b5b828201905092915050565b600061268b8261274f565b91506126968361274f565b9250826126a6576126a56128a7565b5b828204905092915050565b60006126bc8261274f565b91506126c78361274f565b9250828210156126da576126d9612878565b5b828203905092915050565b60006126f08261272f565b9050919050565b60008115159050919050565b60007fffffffff0000000000000000000000000000000000000000000000000000000082169050919050565b600073ffffffffffffffffffffffffffffffffffffffff82169050919050565b6000819050919050565b82818337600083830152505050565b60005b8381101561278657808201518184015260208101905061276b565b83811115612795576000848401525b50505050565b600060028204905060018216806127b357607f821691505b602082108114156127c7576127c66128d6565b5b50919050565b6127d682612934565b810181811067ffffffffffffffff821117156127f5576127f4612905565b5b80604052505050565b60006128098261274f565b91507fffffffffffffffffffffffffffffffffffffffffffffffffffffffffffffffff82141561283c5761283b612878565b5b600182019050919050565b60006128528261274f565b915061285d8361274f565b92508261286d5761286c6128a7565b5b828206905092915050565b7f4e487b7100000000000000000000000000000000000000000000000000000000600052601160045260246000fd5b7f4e487b7100000000000000000000000000000000000000000000000000000000600052601260045260246000fd5b7f4e487b7100000000000000000000000000000000000000000000000000000000600052602260045260246000fd5b7f4e487b7100000000000000000000000000000000000000000000000000000000600052604160045260246000fd5b6000601f19601f8301169050919050565b7f4552433732313a207472616e7366657220746f206e6f6e20455243373231526560008201527f63656976657220696d706c656d656e7465720000000000000000000000000000602082015250565b7f4f776e61626c653a206e6577206f776e657220697320746865207a65726f206160008201527f6464726573730000000000000000000000000000000000000000000000000000602082015250565b7f4552433732313a207472616e736665722066726f6d20696e636f72726563742060008201527f6f776e6572000000000000000000000000000000000000000000000000000000602082015250565b7f4552433732313a20746f6b656e20616c7265616479206d696e74656400000000600082015250565b7f4552433732313a207472616e7366657220746f20746865207a65726f2061646460008201527f7265737300000000000000000000000000000000000000000000000000000000602082015250565b7f4552433732313a20617070726f766520746f2063616c6c657200000000000000600082015250565b7f457863656564206d6178696d756d20737570706c790000000000000000000000600082015250565b7f4552433732313a206f70657261746f7220717565727920666f72206e6f6e657860008201527f697374656e7420746f6b656e0000000000000000000000000000000000000000602082015250565b7f4552433732313a20617070726f76652063616c6c6572206973206e6f74206f7760008201527f6e6572206e6f7220617070726f76656420666f7220616c6c0000000000000000602082015250565b7f4552433732313a2062616c616e636520717565727920666f7220746865207a6560008201527f726f206164647265737300000000000000000000000000000000000000000000602082015250565b7f4552433732313a206f776e657220717565727920666f72206e6f6e657869737460008201527f656e7420746f6b656e0000000000000000000000000000000000000000000000602082015250565b7f4552433732313a206d696e7420746f20746865207a65726f2061646472657373600082015250565b7f4552433732313a20617070726f76656420717565727920666f72206e6f6e657860008201527f697374656e7420746f6b656e0000000000000000000000000000000000000000602082015250565b7f4f776e61626c653a2063616c6c6572206973206e6f7420746865206f776e6572600082015250565b7f4552433732314d657461646174613a2055524920717565727920666f72206e6f60008201527f6e6578697374656e7420746f6b656e0000000000000000000000000000000000602082015250565b7f4552433732313a20617070726f76616c20746f2063757272656e74206f776e6560008201527f7200000000000000000000000000000000000000000000000000000000000000602082015250565b7f4552433732313a207472616e736665722063616c6c6572206973206e6f74206f60008201527f776e6572206e6f7220617070726f766564000000000000000000000000000000602082015250565b612dcf816126e5565b8114612dda57600080fd5b50565b612de6816126f7565b8114612df157600080fd5b50565b612dfd81612703565b8114612e0857600080fd5b50565b612e148161274f565b8114612e1f57600080fd5b5056fe6d696e743a206d73672073656e6465722069732025732c206d73672e76616c7565206973202573a264697066735822122055f8ed2fbd6200f6bb0b702f120e2dd909195de45a76fe8067eea5498ce252bd64736f6c63430008040033",
  "linkReferences": {},
  "deployedLinkReferences": {}
}