{
  "_format": "hh-sol-artifact-1",
  "contractName": "Maker",
  "sourceName": "contracts/Maker.sol",
  "abi": [
    {
      "inputs": [
        {
          "internalType": "string",
          "name": "_companyName",
          "type": "string"
        },
        {
          "internalType": "string",
          "name": "_logoIpfsUrl",
          "type": "string"
        }
      ],
      "stateMutability": "nonpayable",
      "type": "constructor"
    },
    {
      "inputs": [
        {
          "internalType": "address",
          "name": "_newAdmin",
          "type": "address"
        }
      ],
      "name": "addAdmin",
      "outputs": [],
      "stateMutability": "nonpayable",
      "type": "function"
    },
    {
      "inputs": [
        {
          "internalType": "address",
          "name": "_address",
          "type": "address"
        }
      ],
      "name": "addContract",
      "outputs": [],
      "stateMutability": "nonpayable",
      "type": "function"
    },
    {
      "inputs": [
        {
          "internalType": "uint256",
          "name": "_index",
          "type": "uint256"
        }
      ],
      "name": "getAdmin",
      "outputs": [
        {
          "internalType": "address",
          "name": "",
          "type": "address"
        }
      ],
      "stateMutability": "view",
      "type": "function"
    },
    {
      "inputs": [],
      "name": "getAdminCount",
      "outputs": [
        {
          "internalType": "uint256",
          "name": "",
          "type": "uint256"
        }
      ],
      "stateMutability": "view",
      "type": "function"
    },
    {
      "inputs": [],
      "name": "getContractCount",
      "outputs": [
        {
          "internalType": "uint256",
          "name": "",
          "type": "uint256"
        }
      ],
      "stateMutability": "view",
      "type": "function"
    }
  ],
  "bytecode": "0x60806040523480156200001157600080fd5b5060405162000abc38038062000abc8339818101604052810190620000379190620001f6565b6000339080600181540180825580915050600190039060005260206000200160009091909190916101000a81548173ffffffffffffffffffffffffffffffffffffffff021916908373ffffffffffffffffffffffffffffffffffffffff1602179055508160029080519060200190620000b2929190620000d4565b508060039080519060200190620000cb929190620000d4565b505050620003d9565b828054620000e290620002fe565b90600052602060002090601f01602090048101928262000106576000855562000152565b82601f106200012157805160ff191683800117855562000152565b8280016001018555821562000152579182015b828111156200015157825182559160200191906001019062000134565b5b50905062000161919062000165565b5090565b5b808211156200018057600081600090555060010162000166565b5090565b60006200019b620001958462000292565b62000269565b905082815260208101848484011115620001b457600080fd5b620001c1848285620002c8565b509392505050565b600082601f830112620001db57600080fd5b8151620001ed84826020860162000184565b91505092915050565b600080604083850312156200020a57600080fd5b600083015167ffffffffffffffff8111156200022557600080fd5b6200023385828601620001c9565b925050602083015167ffffffffffffffff8111156200025157600080fd5b6200025f85828601620001c9565b9150509250929050565b60006200027562000288565b905062000283828262000334565b919050565b6000604051905090565b600067ffffffffffffffff821115620002b057620002af62000399565b5b620002bb82620003c8565b9050602081019050919050565b60005b83811015620002e8578082015181840152602081019050620002cb565b83811115620002f8576000848401525b50505050565b600060028204905060018216806200031757607f821691505b602082108114156200032e576200032d6200036a565b5b50919050565b6200033f82620003c8565b810181811067ffffffffffffffff8211171562000361576200036062000399565b5b80604052505050565b7f4e487b7100000000000000000000000000000000000000000000000000000000600052602260045260246000fd5b7f4e487b7100000000000000000000000000000000000000000000000000000000600052604160045260246000fd5b6000601f19601f8301169050919050565b6106d380620003e96000396000f3fe608060405234801561001057600080fd5b50600436106100575760003560e01c8063111fd88b1461005c5780635f539d691461008c57806370480275146100a85780638b7bf3eb146100c45780639399869d146100e2575b600080fd5b610076600480360381019061007191906104c1565b610100565b604051610083919061052b565b60405180910390f35b6100a660048036038101906100a19190610498565b61016d565b005b6100c260048036038101906100bd9190610498565b6102e1565b005b6100cc610455565b6040516100d99190610566565b60405180910390f35b6100ea610461565b6040516100f79190610566565b60405180910390f35b600080828154811061013b577f4e487b7100000000000000000000000000000000000000000000000000000000600052603260045260246000fd5b9060005260206000200160009054906101000a900473ffffffffffffffffffffffffffffffffffffffff169050919050565b6000805b60008054905081101561023257600081815481106101b8577f4e487b7100000000000000000000000000000000000000000000000000000000600052603260045260246000fd5b9060005260206000200160009054906101000a900473ffffffffffffffffffffffffffffffffffffffff1673ffffffffffffffffffffffffffffffffffffffff163373ffffffffffffffffffffffffffffffffffffffff16141561021f5760019150610232565b808061022a906105ce565b915050610171565b50600115158115151461027a576040517f08c379a000000000000000000000000000000000000000000000000000000000815260040161027190610546565b60405180910390fd5b6001829080600181540180825580915050600190039060005260206000200160009091909190916101000a81548173ffffffffffffffffffffffffffffffffffffffff021916908373ffffffffffffffffffffffffffffffffffffffff1602179055505050565b6000805b6000805490508110156103a6576000818154811061032c577f4e487b7100000000000000000000000000000000000000000000000000000000600052603260045260246000fd5b9060005260206000200160009054906101000a900473ffffffffffffffffffffffffffffffffffffffff1673ffffffffffffffffffffffffffffffffffffffff163373ffffffffffffffffffffffffffffffffffffffff16141561039357600191506103a6565b808061039e906105ce565b9150506102e5565b5060011515811515146103ee576040517f08c379a00000000000000000000000000000000000000000000000000000000081526004016103e590610546565b60405180910390fd5b6000829080600181540180825580915050600190039060005260206000200160009091909190916101000a81548173ffffffffffffffffffffffffffffffffffffffff021916908373ffffffffffffffffffffffffffffffffffffffff1602179055505050565b60008080549050905090565b6000600180549050905090565b60008135905061047d8161066f565b92915050565b60008135905061049281610686565b92915050565b6000602082840312156104aa57600080fd5b60006104b88482850161046e565b91505092915050565b6000602082840312156104d357600080fd5b60006104e184828501610483565b91505092915050565b6104f381610592565b82525050565b6000610506601883610581565b915061051182610646565b602082019050919050565b610525816105c4565b82525050565b600060208201905061054060008301846104ea565b92915050565b6000602082019050818103600083015261055f816104f9565b9050919050565b600060208201905061057b600083018461051c565b92915050565b600082825260208201905092915050565b600061059d826105a4565b9050919050565b600073ffffffffffffffffffffffffffffffffffffffff82169050919050565b6000819050919050565b60006105d9826105c4565b91507fffffffffffffffffffffffffffffffffffffffffffffffffffffffffffffffff82141561060c5761060b610617565b5b600182019050919050565b7f4e487b7100000000000000000000000000000000000000000000000000000000600052601160045260246000fd5b7f4f6e6c792041646d696e732063616e20646f2074686973210000000000000000600082015250565b61067881610592565b811461068357600080fd5b50565b61068f816105c4565b811461069a57600080fd5b5056fea2646970667358221220a3eaca506cb6d758c50fce7f12904a1b29469ec28e8415b3c6078520f3e10c5064736f6c63430008040033",
  "linkReferences": {},
  "deployedLinkReferences": {}
}