{
  "_format": "hh-sol-artifact-1",
  "contractName": "Manufacturer",
  "sourceName": "contracts/Manufacturer.sol",
  "abi": [
    {
      "inputs": [],
      "stateMutability": "nonpayable",
      "type": "constructor"
    },
    {
      "inputs": [
        {
          "internalType": "address",
          "name": "_newAdmin",
          "type": "address"
        }
      ],
      "name": "addAdmin",
      "outputs": [],
      "stateMutability": "nonpayable",
      "type": "function"
    },
    {
      "inputs": [
        {
          "internalType": "address",
          "name": "_address",
          "type": "address"
        }
      ],
      "name": "addContract",
      "outputs": [],
      "stateMutability": "nonpayable",
      "type": "function"
    },
    {
      "inputs": [
        {
          "internalType": "uint256",
          "name": "_index",
          "type": "uint256"
        }
      ],
      "name": "getAdmin",
      "outputs": [
        {
          "internalType": "address",
          "name": "",
          "type": "address"
        }
      ],
      "stateMutability": "view",
      "type": "function"
    },
    {
      "inputs": [],
      "name": "getAdminCount",
      "outputs": [
        {
          "internalType": "uint256",
          "name": "",
          "type": "uint256"
        }
      ],
      "stateMutability": "view",
      "type": "function"
    },
    {
      "inputs": [],
      "name": "getContractCount",
      "outputs": [
        {
          "internalType": "uint256",
          "name": "",
          "type": "uint256"
        }
      ],
      "stateMutability": "view",
      "type": "function"
    }
  ],
  "bytecode": "0x608060405234801561001057600080fd5b506000339080600181540180825580915050600190039060005260206000200160009091909190916101000a81548173ffffffffffffffffffffffffffffffffffffffff021916908373ffffffffffffffffffffffffffffffffffffffff1602179055506040518060400160405280601081526020017f576f6e6b6120496e647573747269657300000000000000000000000000000000815250600290805190602001906100bf9291906100f4565b506040518060800160405280605181526020016108da60519139600390805190602001906100ee9291906100f4565b506101f8565b82805461010090610197565b90600052602060002090601f0160209004810192826101225760008555610169565b82601f1061013b57805160ff1916838001178555610169565b82800160010185558215610169579182015b8281111561016857825182559160200191906001019061014d565b5b509050610176919061017a565b5090565b5b8082111561019357600081600090555060010161017b565b5090565b600060028204905060018216806101af57607f821691505b602082108114156101c3576101c26101c9565b5b50919050565b7f4e487b7100000000000000000000000000000000000000000000000000000000600052602260045260246000fd5b6106d3806102076000396000f3fe608060405234801561001057600080fd5b50600436106100575760003560e01c8063111fd88b1461005c5780635f539d691461008c57806370480275146100a85780638b7bf3eb146100c45780639399869d146100e2575b600080fd5b610076600480360381019061007191906104c1565b610100565b604051610083919061052b565b60405180910390f35b6100a660048036038101906100a19190610498565b61016d565b005b6100c260048036038101906100bd9190610498565b6102e1565b005b6100cc610455565b6040516100d99190610566565b60405180910390f35b6100ea610461565b6040516100f79190610566565b60405180910390f35b600080828154811061013b577f4e487b7100000000000000000000000000000000000000000000000000000000600052603260045260246000fd5b9060005260206000200160009054906101000a900473ffffffffffffffffffffffffffffffffffffffff169050919050565b6000805b60008054905081101561023257600081815481106101b8577f4e487b7100000000000000000000000000000000000000000000000000000000600052603260045260246000fd5b9060005260206000200160009054906101000a900473ffffffffffffffffffffffffffffffffffffffff1673ffffffffffffffffffffffffffffffffffffffff163373ffffffffffffffffffffffffffffffffffffffff16141561021f5760019150610232565b808061022a906105ce565b915050610171565b50600115158115151461027a576040517f08c379a000000000000000000000000000000000000000000000000000000000815260040161027190610546565b60405180910390fd5b6001829080600181540180825580915050600190039060005260206000200160009091909190916101000a81548173ffffffffffffffffffffffffffffffffffffffff021916908373ffffffffffffffffffffffffffffffffffffffff1602179055505050565b6000805b6000805490508110156103a6576000818154811061032c577f4e487b7100000000000000000000000000000000000000000000000000000000600052603260045260246000fd5b9060005260206000200160009054906101000a900473ffffffffffffffffffffffffffffffffffffffff1673ffffffffffffffffffffffffffffffffffffffff163373ffffffffffffffffffffffffffffffffffffffff16141561039357600191506103a6565b808061039e906105ce565b9150506102e5565b5060011515811515146103ee576040517f08c379a00000000000000000000000000000000000000000000000000000000081526004016103e590610546565b60405180910390fd5b6000829080600181540180825580915050600190039060005260206000200160009091909190916101000a81548173ffffffffffffffffffffffffffffffffffffffff021916908373ffffffffffffffffffffffffffffffffffffffff1602179055505050565b60008080549050905090565b6000600180549050905090565b60008135905061047d8161066f565b92915050565b60008135905061049281610686565b92915050565b6000602082840312156104aa57600080fd5b60006104b88482850161046e565b91505092915050565b6000602082840312156104d357600080fd5b60006104e184828501610483565b91505092915050565b6104f381610592565b82525050565b6000610506601883610581565b915061051182610646565b602082019050919050565b610525816105c4565b82525050565b600060208201905061054060008301846104ea565b92915050565b6000602082019050818103600083015261055f816104f9565b9050919050565b600060208201905061057b600083018461051c565b92915050565b600082825260208201905092915050565b600061059d826105a4565b9050919050565b600073ffffffffffffffffffffffffffffffffffffffff82169050919050565b6000819050919050565b60006105d9826105c4565b91507fffffffffffffffffffffffffffffffffffffffffffffffffffffffffffffffff82141561060c5761060b610617565b5b600182019050919050565b7f4e487b7100000000000000000000000000000000000000000000000000000000600052601160045260246000fd5b7f4f6e6c792041646d696e732063616e20646f2074686973210000000000000000600082015250565b61067881610592565b811461068357600080fd5b50565b61068f816105c4565b811461069a57600080fd5b5056fea26469706673582212207e4c74f79933339a3201676e317ad9b3e9fb229542297e8452836bfa10a9657564736f6c6343000804003368747470733a2f2f676174657761792e70696e6174612e636c6f75642f697066732f516d597854344c6e4b3873714c75706a62533665527675317369374c793277465141714665627868576e746366362f",
  "linkReferences": {},
  "deployedLinkReferences": {}
}