{
  "_format": "hh-sol-artifact-1",
  "contractName": "StubNFTMarketplaceImpl",
  "sourceName": "contracts/StubNFTMarketplaceImpl.sol",
  "abi": [
    {
      "inputs": [],
      "stateMutability": "nonpayable",
      "type": "constructor"
    },
    {
      "anonymous": false,
      "inputs": [
        {
          "indexed": true,
          "internalType": "address",
          "name": "nftContractAddress",
          "type": "address"
        },
        {
          "indexed": true,
          "internalType": "address",
          "name": "buyer",
          "type": "address"
        },
        {
          "indexed": false,
          "internalType": "uint256",
          "name": "tokenId",
          "type": "uint256"
        }
      ],
      "name": "BuyItem",
      "type": "event"
    },
    {
      "anonymous": false,
      "inputs": [
        {
          "indexed": true,
          "internalType": "address",
          "name": "nftContractAddress",
          "type": "address"
        },
        {
          "indexed": true,
          "internalType": "address",
          "name": "seller",
          "type": "address"
        }
      ],
      "name": "CreateNftCollectionContract",
      "type": "event"
    },
    {
      "inputs": [
        {
          "internalType": "address",
          "name": "collectionAddress",
          "type": "address"
        }
      ],
      "name": "buyItem",
      "outputs": [
        {
          "internalType": "uint256",
          "name": "",
          "type": "uint256"
        }
      ],
      "stateMutability": "payable",
      "type": "function"
    },
    {
      "inputs": [
        {
          "components": [
            {
              "internalType": "string",
              "name": "productName",
              "type": "string"
            },
            {
              "internalType": "string",
              "name": "symbol",
              "type": "string"
            },
            {
              "internalType": "string",
              "name": "metadataURI",
              "type": "string"
            },
            {
              "internalType": "string",
              "name": "imageURI",
              "type": "string"
            },
            {
              "internalType": "address",
              "name": "makerAddress",
              "type": "address"
            },
            {
              "internalType": "address",
              "name": "nftContractAddress",
              "type": "address"
            },
            {
              "internalType": "uint256",
              "name": "price",
              "type": "uint256"
            }
          ],
          "internalType": "struct Models.NftCollection",
          "name": "_newNftCollection",
          "type": "tuple"
        }
      ],
      "name": "createNftCollectionContract",
      "outputs": [],
      "stateMutability": "nonpayable",
      "type": "function"
    },
    {
      "inputs": [],
      "name": "getAllCollectionsForSale",
      "outputs": [
        {
          "components": [
            {
              "internalType": "string",
              "name": "productName",
              "type": "string"
            },
            {
              "internalType": "string",
              "name": "symbol",
              "type": "string"
            },
            {
              "internalType": "string",
              "name": "metadataURI",
              "type": "string"
            },
            {
              "internalType": "string",
              "name": "imageURI",
              "type": "string"
            },
            {
              "internalType": "address",
              "name": "makerAddress",
              "type": "address"
            },
            {
              "internalType": "address",
              "name": "nftContractAddress",
              "type": "address"
            },
            {
              "internalType": "uint256",
              "name": "price",
              "type": "uint256"
            }
          ],
          "internalType": "struct Models.NftCollection[]",
          "name": "collections",
          "type": "tuple[]"
        }
      ],
      "stateMutability": "view",
      "type": "function"
    },
    {
      "inputs": [
        {
          "internalType": "address",
          "name": "collectionAddress",
          "type": "address"
        }
      ],
      "name": "getPrice",
      "outputs": [
        {
          "internalType": "uint256",
          "name": "",
          "type": "uint256"
        }
      ],
      "stateMutability": "view",
      "type": "function"
    }
  ],
  "bytecode": "0x608060405234801561001057600080fd5b50611534806100206000396000f3fe60806040526004361061003f5760003560e01c80630328217f146100445780630b3ebd7a1461006d57806341976e0914610098578063dd62b039146100d5575b600080fd5b34801561005057600080fd5b5061006b60048036038101906100669190610e0d565b610105565b005b34801561007957600080fd5b5061008261034c565b60405161008f91906110b0565b60405180910390f35b3480156100a457600080fd5b506100bf60048036038101906100ba9190610de4565b6107f3565b6040516100cc919061114e565b60405180910390f35b6100ef60048036038101906100ea9190610de4565b61083e565b6040516100fc919061114e565b60405180910390f35b6101276040518060600160405280602d815260200161149b602d9139336109ba565b806000808360a0015173ffffffffffffffffffffffffffffffffffffffff1673ffffffffffffffffffffffffffffffffffffffff1681526020019081526020016000206000820151816000019080519060200190610186929190610b21565b5060208201518160010190805190602001906101a3929190610b21565b5060408201518160020190805190602001906101c0929190610b21565b5060608201518160030190805190602001906101dd929190610b21565b5060808201518160040160006101000a81548173ffffffffffffffffffffffffffffffffffffffff021916908373ffffffffffffffffffffffffffffffffffffffff16021790555060a08201518160050160006101000a81548173ffffffffffffffffffffffffffffffffffffffff021916908373ffffffffffffffffffffffffffffffffffffffff16021790555060c082015181600601559050508060a0015160016000600254815260200190815260200160002060006101000a81548173ffffffffffffffffffffffffffffffffffffffff021916908373ffffffffffffffffffffffffffffffffffffffff1602179055506001600260008282546102e49190611225565b925050819055503373ffffffffffffffffffffffffffffffffffffffff168160a0015173ffffffffffffffffffffffffffffffffffffffff167f1579e2ae5d380a84e9913102b973e528e12ba8e8c3f598098f25969623d04eeb60405160405180910390a350565b606061038d6040518060400160405280601981526020017f6275794974656d3a206d73672073656e64657220697320257300000000000000815250336109ba565b600060025467ffffffffffffffff8111156103d1577f4e487b7100000000000000000000000000000000000000000000000000000000600052604160045260246000fd5b60405190808252806020026020018201604052801561040a57816020015b6103f7610ba7565b8152602001906001900390816103ef5790505b50905060005b6002548110156107eb576000806001600084815260200190815260200160002060009054906101000a900473ffffffffffffffffffffffffffffffffffffffff1673ffffffffffffffffffffffffffffffffffffffff1673ffffffffffffffffffffffffffffffffffffffff1681526020019081526020016000206040518060e00160405290816000820180546104a6906112f9565b80601f01602080910402602001604051908101604052809291908181526020018280546104d2906112f9565b801561051f5780601f106104f45761010080835404028352916020019161051f565b820191906000526020600020905b81548152906001019060200180831161050257829003601f168201915b50505050508152602001600182018054610538906112f9565b80601f0160208091040260200160405190810160405280929190818152602001828054610564906112f9565b80156105b15780601f10610586576101008083540402835291602001916105b1565b820191906000526020600020905b81548152906001019060200180831161059457829003601f168201915b505050505081526020016002820180546105ca906112f9565b80601f01602080910402602001604051908101604052809291908181526020018280546105f6906112f9565b80156106435780601f1061061857610100808354040283529160200191610643565b820191906000526020600020905b81548152906001019060200180831161062657829003601f168201915b5050505050815260200160038201805461065c906112f9565b80601f0160208091040260200160405190810160405280929190818152602001828054610688906112f9565b80156106d55780601f106106aa576101008083540402835291602001916106d5565b820191906000526020600020905b8154815290600101906020018083116106b857829003601f168201915b505050505081526020016004820160009054906101000a900473ffffffffffffffffffffffffffffffffffffffff1673ffffffffffffffffffffffffffffffffffffffff1673ffffffffffffffffffffffffffffffffffffffff1681526020016005820160009054906101000a900473ffffffffffffffffffffffffffffffffffffffff1673ffffffffffffffffffffffffffffffffffffffff1673ffffffffffffffffffffffffffffffffffffffff1681526020016006820154815250508282815181106107cd577f4e487b7100000000000000000000000000000000000000000000000000000000600052603260045260246000fd5b602002602001018190525080806107e39061135c565b915050610410565b508091505090565b60008060008373ffffffffffffffffffffffffffffffffffffffff1673ffffffffffffffffffffffffffffffffffffffff168152602001908152602001600020600601549050919050565b6000806000808473ffffffffffffffffffffffffffffffffffffffff1673ffffffffffffffffffffffffffffffffffffffff1681526020019081526020016000206006015490506108a96040518060600160405280603781526020016114c860379139333484610a56565b803410156108b657600080fd5b600083905060008173ffffffffffffffffffffffffffffffffffffffff1663d0def521336040518263ffffffff1660e01b81526004016108f69190611082565b602060405180830381600087803b15801561091057600080fd5b505af1158015610924573d6000803e3d6000fd5b505050506040513d601f19601f820116820180604052508101906109489190610e4e565b90503373ffffffffffffffffffffffffffffffffffffffff168573ffffffffffffffffffffffffffffffffffffffff167f6c6b4089a33962e6812e1b966b55b459cfb4b68079af432bdaac195dafc69edd836040516109a7919061114e565b60405180910390a3809350505050919050565b610a5282826040516024016109d09291906110d2565b6040516020818303038152906040527f319af333000000000000000000000000000000000000000000000000000000007bffffffffffffffffffffffffffffffffffffffffffffffffffffffff19166020820180517bffffffffffffffffffffffffffffffffffffffffffffffffffffffff8381831617835250505050610af8565b5050565b610af284848484604051602401610a709493929190611102565b6040516020818303038152906040527fdaa394bd000000000000000000000000000000000000000000000000000000007bffffffffffffffffffffffffffffffffffffffffffffffffffffffff19166020820180517bffffffffffffffffffffffffffffffffffffffffffffffffffffffff8381831617835250505050610af8565b50505050565b60008151905060006a636f6e736f6c652e6c6f679050602083016000808483855afa5050505050565b828054610b2d906112f9565b90600052602060002090601f016020900481019282610b4f5760008555610b96565b82601f10610b6857805160ff1916838001178555610b96565b82800160010185558215610b96579182015b82811115610b95578251825591602001919060010190610b7a565b5b509050610ba39190610c10565b5090565b6040518060e0016040528060608152602001606081526020016060815260200160608152602001600073ffffffffffffffffffffffffffffffffffffffff168152602001600073ffffffffffffffffffffffffffffffffffffffff168152602001600081525090565b5b80821115610c29576000816000905550600101610c11565b5090565b6000610c40610c3b8461118e565b611169565b905082815260208101848484011115610c5857600080fd5b610c638482856112b7565b509392505050565b600081359050610c7a8161146c565b92915050565b600082601f830112610c9157600080fd5b8135610ca1848260208601610c2d565b91505092915050565b600060e08284031215610cbc57600080fd5b610cc660e0611169565b9050600082013567ffffffffffffffff811115610ce257600080fd5b610cee84828501610c80565b600083015250602082013567ffffffffffffffff811115610d0e57600080fd5b610d1a84828501610c80565b602083015250604082013567ffffffffffffffff811115610d3a57600080fd5b610d4684828501610c80565b604083015250606082013567ffffffffffffffff811115610d6657600080fd5b610d7284828501610c80565b6060830152506080610d8684828501610c6b565b60808301525060a0610d9a84828501610c6b565b60a08301525060c0610dae84828501610dba565b60c08301525092915050565b600081359050610dc981611483565b92915050565b600081519050610dde81611483565b92915050565b600060208284031215610df657600080fd5b6000610e0484828501610c6b565b91505092915050565b600060208284031215610e1f57600080fd5b600082013567ffffffffffffffff811115610e3957600080fd5b610e4584828501610caa565b91505092915050565b600060208284031215610e6057600080fd5b6000610e6e84828501610dcf565b91505092915050565b6000610e838383610fb3565b905092915050565b610e948161127b565b82525050565b610ea38161127b565b82525050565b6000610eb4826111cf565b610ebe81856111f2565b935083602082028501610ed0856111bf565b8060005b85811015610f0c5784840389528151610eed8582610e77565b9450610ef8836111e5565b925060208a01995050600181019050610ed4565b50829750879550505050505092915050565b6000610f29826111da565b610f338185611203565b9350610f438185602086016112c6565b610f4c81611432565b840191505092915050565b6000610f62826111da565b610f6c8185611214565b9350610f7c8185602086016112c6565b610f8581611432565b840191505092915050565b6000610f9d600883611214565b9150610fa882611443565b602082019050919050565b600060e0830160008301518482036000860152610fd08282610f1e565b91505060208301518482036020860152610fea8282610f1e565b915050604083015184820360408601526110048282610f1e565b9150506060830151848203606086015261101e8282610f1e565b91505060808301516110336080860182610e8b565b5060a083015161104660a0860182610e8b565b5060c083015161105960c0860182611064565b508091505092915050565b61106d816112ad565b82525050565b61107c816112ad565b82525050565b60006040820190506110976000830184610e9a565b81810360208301526110a881610f90565b905092915050565b600060208201905081810360008301526110ca8184610ea9565b905092915050565b600060408201905081810360008301526110ec8185610f57565b90506110fb6020830184610e9a565b9392505050565b6000608082019050818103600083015261111c8187610f57565b905061112b6020830186610e9a565b6111386040830185611073565b6111456060830184611073565b95945050505050565b60006020820190506111636000830184611073565b92915050565b6000611173611184565b905061117f828261132b565b919050565b6000604051905090565b600067ffffffffffffffff8211156111a9576111a8611403565b5b6111b282611432565b9050602081019050919050565b6000819050602082019050919050565b600081519050919050565b600081519050919050565b6000602082019050919050565b600082825260208201905092915050565b600082825260208201905092915050565b600082825260208201905092915050565b6000611230826112ad565b915061123b836112ad565b9250827fffffffffffffffffffffffffffffffffffffffffffffffffffffffffffffffff038211156112705761126f6113a5565b5b828201905092915050565b60006112868261128d565b9050919050565b600073ffffffffffffffffffffffffffffffffffffffff82169050919050565b6000819050919050565b82818337600083830152505050565b60005b838110156112e45780820151818401526020810190506112c9565b838111156112f3576000848401525b50505050565b6000600282049050600182168061131157607f821691505b60208210811415611325576113246113d4565b5b50919050565b61133482611432565b810181811067ffffffffffffffff8211171561135357611352611403565b5b80604052505050565b6000611367826112ad565b91507fffffffffffffffffffffffffffffffffffffffffffffffffffffffffffffffff82141561139a576113996113a5565b5b600182019050919050565b7f4e487b7100000000000000000000000000000000000000000000000000000000600052601160045260246000fd5b7f4e487b7100000000000000000000000000000000000000000000000000000000600052602260045260246000fd5b7f4e487b7100000000000000000000000000000000000000000000000000000000600052604160045260246000fd5b6000601f19601f8301169050919050565b7f746573745f757269000000000000000000000000000000000000000000000000600082015250565b6114758161127b565b811461148057600080fd5b50565b61148c816112ad565b811461149757600080fd5b5056fe6372656174654e6674436f6c6c656374696f6e436f6e74726163743a206d73672073656e6465722069732025736275794974656d3a206d73672073656e6465722069732025732c206d73672e76616c75652069732025732c207072696365206973202573a2646970667358221220cab02121326159f919563e0dc52b67cd7416a372254fdc4df3e031c52bad7a2464736f6c63430008040033",
  "linkReferences": {},
  "deployedLinkReferences": {}
}