{
  "_format": "hh-sol-artifact-1",
  "contractName": "FinalMarketplace",
  "sourceName": "contracts/FinalMarketplace.sol",
  "abi": [
    {
      "inputs": [],
      "stateMutability": "nonpayable",
      "type": "constructor"
    },
    {
      "anonymous": false,
      "inputs": [
        {
          "indexed": false,
          "internalType": "uint256",
          "name": "itemId",
          "type": "uint256"
        },
        {
          "indexed": true,
          "internalType": "address",
          "name": "nftCollection",
          "type": "address"
        },
        {
          "indexed": false,
          "internalType": "uint256",
          "name": "tokenId",
          "type": "uint256"
        },
        {
          "indexed": false,
          "internalType": "uint256",
          "name": "price",
          "type": "uint256"
        },
        {
          "indexed": true,
          "internalType": "address",
          "name": "seller",
          "type": "address"
        }
      ],
      "name": "MarketItemAdded",
      "type": "event"
    },
    {
      "anonymous": false,
      "inputs": [
        {
          "indexed": false,
          "internalType": "uint256",
          "name": "itemId",
          "type": "uint256"
        },
        {
          "indexed": true,
          "internalType": "address",
          "name": "nftCollection",
          "type": "address"
        },
        {
          "indexed": false,
          "internalType": "uint256",
          "name": "tokenId",
          "type": "uint256"
        },
        {
          "indexed": false,
          "internalType": "uint256",
          "name": "price",
          "type": "uint256"
        },
        {
          "indexed": true,
          "internalType": "address",
          "name": "seller",
          "type": "address"
        },
        {
          "indexed": true,
          "internalType": "address",
          "name": "buyer",
          "type": "address"
        }
      ],
      "name": "MarketItemPurchase",
      "type": "event"
    },
    {
      "anonymous": false,
      "inputs": [
        {
          "indexed": true,
          "internalType": "address",
          "name": "previousOwner",
          "type": "address"
        },
        {
          "indexed": true,
          "internalType": "address",
          "name": "newOwner",
          "type": "address"
        }
      ],
      "name": "OwnershipTransferred",
      "type": "event"
    },
    {
      "inputs": [
        {
          "internalType": "address",
          "name": "_nftCollectionAddress",
          "type": "address"
        }
      ],
      "name": "addCollection",
      "outputs": [],
      "stateMutability": "nonpayable",
      "type": "function"
    },
    {
      "inputs": [
        {
          "internalType": "address",
          "name": "_maker",
          "type": "address"
        },
        {
          "internalType": "address",
          "name": "_newProductLine",
          "type": "address"
        }
      ],
      "name": "addMakerProductLines",
      "outputs": [],
      "stateMutability": "nonpayable",
      "type": "function"
    },
    {
      "inputs": [
        {
          "internalType": "contract IERC721",
          "name": "_nft",
          "type": "address"
        },
        {
          "internalType": "uint256",
          "name": "_tokenId",
          "type": "uint256"
        },
        {
          "internalType": "uint256",
          "name": "_price",
          "type": "uint256"
        }
      ],
      "name": "addMarketItem",
      "outputs": [],
      "stateMutability": "nonpayable",
      "type": "function"
    },
    {
      "inputs": [
        {
          "internalType": "uint256",
          "name": "_itemId",
          "type": "uint256"
        }
      ],
      "name": "buyMarketItem",
      "outputs": [],
      "stateMutability": "payable",
      "type": "function"
    },
    {
      "inputs": [
        {
          "internalType": "uint256",
          "name": "_collectionIndex",
          "type": "uint256"
        }
      ],
      "name": "chooseCollection",
      "outputs": [],
      "stateMutability": "nonpayable",
      "type": "function"
    },
    {
      "inputs": [],
      "name": "collectionItems",
      "outputs": [
        {
          "internalType": "uint256",
          "name": "",
          "type": "uint256"
        }
      ],
      "stateMutability": "view",
      "type": "function"
    },
    {
      "inputs": [
        {
          "internalType": "contract NFTCollection",
          "name": "",
          "type": "address"
        }
      ],
      "name": "collectionToItemId",
      "outputs": [
        {
          "internalType": "uint256",
          "name": "",
          "type": "uint256"
        }
      ],
      "stateMutability": "view",
      "type": "function"
    },
    {
      "inputs": [],
      "name": "feeAccount",
      "outputs": [
        {
          "internalType": "address payable",
          "name": "",
          "type": "address"
        }
      ],
      "stateMutability": "view",
      "type": "function"
    },
    {
      "inputs": [],
      "name": "feePercent",
      "outputs": [
        {
          "internalType": "uint256",
          "name": "",
          "type": "uint256"
        }
      ],
      "stateMutability": "view",
      "type": "function"
    },
    {
      "inputs": [],
      "name": "getItemsForSale",
      "outputs": [
        {
          "components": [
            {
              "internalType": "uint256",
              "name": "itemId",
              "type": "uint256"
            },
            {
              "internalType": "contract IERC721",
              "name": "nftCollection",
              "type": "address"
            },
            {
              "internalType": "uint256",
              "name": "tokenId",
              "type": "uint256"
            },
            {
              "internalType": "uint256",
              "name": "price",
              "type": "uint256"
            },
            {
              "internalType": "address payable",
              "name": "seller",
              "type": "address"
            },
            {
              "internalType": "bool",
              "name": "forSale",
              "type": "bool"
            }
          ],
          "internalType": "struct FinalMarketplace.MarketItem[]",
          "name": "",
          "type": "tuple[]"
        }
      ],
      "stateMutability": "nonpayable",
      "type": "function"
    },
    {
      "inputs": [],
      "name": "getItemsOwnedByUser",
      "outputs": [
        {
          "components": [
            {
              "internalType": "uint256",
              "name": "itemId",
              "type": "uint256"
            },
            {
              "internalType": "contract IERC721",
              "name": "nftCollection",
              "type": "address"
            },
            {
              "internalType": "uint256",
              "name": "tokenId",
              "type": "uint256"
            },
            {
              "internalType": "uint256",
              "name": "price",
              "type": "uint256"
            },
            {
              "internalType": "address payable",
              "name": "seller",
              "type": "address"
            },
            {
              "internalType": "bool",
              "name": "forSale",
              "type": "bool"
            }
          ],
          "internalType": "struct FinalMarketplace.MarketItem[]",
          "name": "",
          "type": "tuple[]"
        }
      ],
      "stateMutability": "nonpayable",
      "type": "function"
    },
    {
      "inputs": [
        {
          "internalType": "address",
          "name": "_admin",
          "type": "address"
        }
      ],
      "name": "getMakerContractToAdmin",
      "outputs": [
        {
          "internalType": "address",
          "name": "",
          "type": "address"
        }
      ],
      "stateMutability": "view",
      "type": "function"
    },
    {
      "inputs": [
        {
          "internalType": "address",
          "name": "_maker",
          "type": "address"
        }
      ],
      "name": "getMakerProductLines",
      "outputs": [
        {
          "internalType": "address[]",
          "name": "",
          "type": "address[]"
        }
      ],
      "stateMutability": "view",
      "type": "function"
    },
    {
      "inputs": [
        {
          "internalType": "uint256",
          "name": "_itemId",
          "type": "uint256"
        }
      ],
      "name": "getTotalPrice",
      "outputs": [
        {
          "internalType": "uint256",
          "name": "",
          "type": "uint256"
        }
      ],
      "stateMutability": "view",
      "type": "function"
    },
    {
      "inputs": [],
      "name": "itemCount",
      "outputs": [
        {
          "internalType": "uint256",
          "name": "",
          "type": "uint256"
        }
      ],
      "stateMutability": "view",
      "type": "function"
    },
    {
      "inputs": [
        {
          "internalType": "uint256",
          "name": "",
          "type": "uint256"
        }
      ],
      "name": "items",
      "outputs": [
        {
          "internalType": "uint256",
          "name": "itemId",
          "type": "uint256"
        },
        {
          "internalType": "contract IERC721",
          "name": "nftCollection",
          "type": "address"
        },
        {
          "internalType": "uint256",
          "name": "tokenId",
          "type": "uint256"
        },
        {
          "internalType": "uint256",
          "name": "price",
          "type": "uint256"
        },
        {
          "internalType": "address payable",
          "name": "seller",
          "type": "address"
        },
        {
          "internalType": "bool",
          "name": "forSale",
          "type": "bool"
        }
      ],
      "stateMutability": "view",
      "type": "function"
    },
    {
      "inputs": [
        {
          "internalType": "uint256",
          "name": "",
          "type": "uint256"
        }
      ],
      "name": "nftCollectionsArray",
      "outputs": [
        {
          "internalType": "contract NFTCollection",
          "name": "",
          "type": "address"
        }
      ],
      "stateMutability": "view",
      "type": "function"
    },
    {
      "inputs": [],
      "name": "owner",
      "outputs": [
        {
          "internalType": "address",
          "name": "",
          "type": "address"
        }
      ],
      "stateMutability": "view",
      "type": "function"
    },
    {
      "inputs": [],
      "name": "renounceOwnership",
      "outputs": [],
      "stateMutability": "nonpayable",
      "type": "function"
    },
    {
      "inputs": [
        {
          "internalType": "address",
          "name": "_makerContract",
          "type": "address"
        }
      ],
      "name": "setMakerContractToAdmin",
      "outputs": [],
      "stateMutability": "nonpayable",
      "type": "function"
    },
    {
      "inputs": [
        {
          "internalType": "address",
          "name": "newOwner",
          "type": "address"
        }
      ],
      "name": "transferOwnership",
      "outputs": [],
      "stateMutability": "nonpayable",
      "type": "function"
    },
    {
      "inputs": [],
      "name": "withdraw",
      "outputs": [],
      "stateMutability": "nonpayable",
      "type": "function"
    }
  ],
  "bytecode": "0x60c06040523480156200001157600080fd5b5060016000819055506200003a6200002e6200008060201b60201c565b6200008860201b60201c565b3373ffffffffffffffffffffffffffffffffffffffff1660808173ffffffffffffffffffffffffffffffffffffffff1660601b81525050600260a081815250506200014e565b600033905090565b6000600160009054906101000a900473ffffffffffffffffffffffffffffffffffffffff16905081600160006101000a81548173ffffffffffffffffffffffffffffffffffffffff021916908373ffffffffffffffffffffffffffffffffffffffff1602179055508173ffffffffffffffffffffffffffffffffffffffff168173ffffffffffffffffffffffffffffffffffffffff167f8be0079c531659141344cd1fd0a4f28419497f9722a3daafe3b4186f6b6457e060405160405180910390a35050565b60805160601c60a0516126e762000185600039600081816110340152611828015260008181610b510152610dee01526126e76000f3fe6080604052600436106101355760003560e01c80637fd6f15c116100ab578063a741bc651161006f578063a741bc65146103e1578063b77f62c41461040c578063bfb231d214610435578063ca7dd37514610477578063f2fde38b146104b4578063fec752b7146104dd57610135565b80637fd6f15c1461030e5780638da5cb5b146103395780638e1de4b214610364578063949f7f181461038f578063a174e77a146103b857610135565b80633ccfd60b116100fd5780633ccfd60b1461022457806360f7401a1461023b57806365e17c9d146102785780636bfb0d01146102a35780636d4587de146102ce578063715018a6146102f757610135565b8063064ddd041461013a57806309d3e1d8146101655780630d0d0862146101a25780632201b917146101cb578063351901c314610208575b600080fd5b34801561014657600080fd5b5061014f61051a565b60405161015c9190612091565b60405180910390f35b34801561017157600080fd5b5061018c60048036038101906101879190611caf565b6107fc565b60405161019991906120b3565b60405180910390f35b3480156101ae57600080fd5b506101c960048036038101906101c49190611bd2565b61083b565b005b3480156101d757600080fd5b506101f260048036038101906101ed9190611bd2565b6108bc565b6040516101ff919061206f565b60405180910390f35b610222600480360381019061021d9190611caf565b610989565b005b34801561023057600080fd5b50610239610d56565b005b34801561024757600080fd5b50610262600480360381019061025d9190611c86565b610dd4565b60405161026f91906121ae565b60405180910390f35b34801561028457600080fd5b5061028d610dec565b60405161029a919061201d565b60405180910390f35b3480156102af57600080fd5b506102b8610e10565b6040516102c591906121ae565b60405180910390f35b3480156102da57600080fd5b506102f560048036038101906102f09190611caf565b610e16565b005b34801561030357600080fd5b5061030c610faa565b005b34801561031a57600080fd5b50610323611032565b60405161033091906121ae565b60405180910390f35b34801561034557600080fd5b5061034e611056565b60405161035b9190612002565b60405180910390f35b34801561037057600080fd5b50610379611080565b6040516103869190612091565b60405180910390f35b34801561039b57600080fd5b506103b660048036038101906103b19190611bfb565b6113b1565b005b3480156103c457600080fd5b506103df60048036038101906103da9190611bd2565b611455565b005b3480156103ed57600080fd5b506103f66114c1565b60405161040391906121ae565b60405180910390f35b34801561041857600080fd5b50610433600480360381019061042e9190611c37565b6114c7565b005b34801561044157600080fd5b5061045c60048036038101906104579190611caf565b611799565b60405161046e969594939291906121c9565b60405180910390f35b34801561048357600080fd5b5061049e60048036038101906104999190611caf565b611822565b6040516104ab91906121ae565b60405180910390f35b3480156104c057600080fd5b506104db60048036038101906104d69190611bd2565b611885565b005b3480156104e957600080fd5b5061050460048036038101906104ff9190611bd2565b61197d565b6040516105119190612002565b60405180910390f35b606060005b6003548110156106b9576007600082815260200190815260200160002060040160149054906101000a900460ff16156106ac576004600760008381526020019081526020016000209080600181540180825580915050600190039060005260206000209060050201600090919091909150600082015481600001556001820160009054906101000a900473ffffffffffffffffffffffffffffffffffffffff168160010160006101000a81548173ffffffffffffffffffffffffffffffffffffffff021916908373ffffffffffffffffffffffffffffffffffffffff16021790555060028201548160020155600382015481600301556004820160009054906101000a900473ffffffffffffffffffffffffffffffffffffffff168160040160006101000a81548173ffffffffffffffffffffffffffffffffffffffff021916908373ffffffffffffffffffffffffffffffffffffffff1602179055506004820160149054906101000a900460ff168160040160146101000a81548160ff02191690831515021790555050505b808060010191505061051f565b506004805480602002602001604051908101604052809291908181526020016000905b828210156107f357838290600052602060002090600502016040518060c0016040529081600082015481526020016001820160009054906101000a900473ffffffffffffffffffffffffffffffffffffffff1673ffffffffffffffffffffffffffffffffffffffff1673ffffffffffffffffffffffffffffffffffffffff16815260200160028201548152602001600382015481526020016004820160009054906101000a900473ffffffffffffffffffffffffffffffffffffffff1673ffffffffffffffffffffffffffffffffffffffff1673ffffffffffffffffffffffffffffffffffffffff1681526020016004820160149054906101000a900460ff161515151581525050815260200190600101906106dc565b50505050905090565b6002818154811061080c57600080fd5b906000526020600020016000915054906101000a900473ffffffffffffffffffffffffffffffffffffffff1681565b80600a60003373ffffffffffffffffffffffffffffffffffffffff1673ffffffffffffffffffffffffffffffffffffffff16815260200190815260200160002060006101000a81548173ffffffffffffffffffffffffffffffffffffffff021916908373ffffffffffffffffffffffffffffffffffffffff16021790555050565b6060600960008373ffffffffffffffffffffffffffffffffffffffff1673ffffffffffffffffffffffffffffffffffffffff16815260200190815260200160002080548060200260200160405190810160405280929190818152602001828054801561097d57602002820191906000526020600020905b8160009054906101000a900473ffffffffffffffffffffffffffffffffffffffff1673ffffffffffffffffffffffffffffffffffffffff1681526020019060010190808311610933575b50505050509050919050565b600260005414156109cf576040517f08c379a00000000000000000000000000000000000000000000000000000000081526004016109c69061218e565b60405180910390fd5b600260008190555060006109e282611822565b90506000600760008481526020019081526020016000209050600083118015610a0d57506006548311155b610a4c576040517f08c379a0000000000000000000000000000000000000000000000000000000008152600401610a439061212e565b60405180910390fd5b813414610a8e576040517f08c379a0000000000000000000000000000000000000000000000000000000008152600401610a859061216e565b60405180910390fd5b8060040160149054906101000a900460ff1615610ae0576040517f08c379a0000000000000000000000000000000000000000000000000000000008152600401610ad79061210e565b60405180910390fd5b8060040160009054906101000a900473ffffffffffffffffffffffffffffffffffffffff1673ffffffffffffffffffffffffffffffffffffffff166108fc82600301549081150290604051600060405180830381858888f19350505050158015610b4e573d6000803e3d6000fd5b507f000000000000000000000000000000000000000000000000000000000000000073ffffffffffffffffffffffffffffffffffffffff166108fc826003015484610b99919061236f565b9081150290604051600060405180830381858888f19350505050158015610bc4573d6000803e3d6000fd5b5060008160040160146101000a81548160ff0219169083151502179055508060010160009054906101000a900473ffffffffffffffffffffffffffffffffffffffff1673ffffffffffffffffffffffffffffffffffffffff166323b872dd303384600201546040518463ffffffff1660e01b8152600401610c4793929190612038565b600060405180830381600087803b158015610c6157600080fd5b505af1158015610c75573d6000803e3d6000fd5b505050503373ffffffffffffffffffffffffffffffffffffffff168160040160009054906101000a900473ffffffffffffffffffffffffffffffffffffffff1673ffffffffffffffffffffffffffffffffffffffff168260010160009054906101000a900473ffffffffffffffffffffffffffffffffffffffff1673ffffffffffffffffffffffffffffffffffffffff167f30e831f2896cfdd24fb857606a44415b35b884c197eda621db44cdffef181e328685600201548660030154604051610d419392919061222a565b60405180910390a45050600160008190555050565b610d5e6119e6565b73ffffffffffffffffffffffffffffffffffffffff16610d7c611056565b73ffffffffffffffffffffffffffffffffffffffff1614610dd2576040517f08c379a0000000000000000000000000000000000000000000000000000000008152600401610dc99061214e565b60405180910390fd5b565b60086020528060005260406000206000915090505481565b7f000000000000000000000000000000000000000000000000000000000000000081565b60065481565b60006008600060028481548110610e56577f4e487b7100000000000000000000000000000000000000000000000000000000600052603260045260246000fd5b9060005260206000200160009054906101000a900473ffffffffffffffffffffffffffffffffffffffff1673ffffffffffffffffffffffffffffffffffffffff1673ffffffffffffffffffffffffffffffffffffffff16815260200190815260200160002054905060028181548110610ef8577f4e487b7100000000000000000000000000000000000000000000000000000000600052603260045260246000fd5b9060005260206000200160009054906101000a900473ffffffffffffffffffffffffffffffffffffffff1673ffffffffffffffffffffffffffffffffffffffff16637757abaa6040518163ffffffff1660e01b815260040160206040518083038186803b158015610f6857600080fd5b505afa158015610f7c573d6000803e3d6000fd5b505050506040513d601f19601f82011682018060405250810190610fa09190611cd8565b6003819055505050565b610fb26119e6565b73ffffffffffffffffffffffffffffffffffffffff16610fd0611056565b73ffffffffffffffffffffffffffffffffffffffff1614611026576040517f08c379a000000000000000000000000000000000000000000000000000000000815260040161101d9061214e565b60405180910390fd5b61103060006119ee565b565b7f000000000000000000000000000000000000000000000000000000000000000081565b6000600160009054906101000a900473ffffffffffffffffffffffffffffffffffffffff16905090565b6060600560006110909190611ab4565b60005b60035481101561126e573373ffffffffffffffffffffffffffffffffffffffff166007600083815260200190815260200160002060040160009054906101000a900473ffffffffffffffffffffffffffffffffffffffff1673ffffffffffffffffffffffffffffffffffffffff161415611261576005600760008381526020019081526020016000209080600181540180825580915050600190039060005260206000209060050201600090919091909150600082015481600001556001820160009054906101000a900473ffffffffffffffffffffffffffffffffffffffff168160010160006101000a81548173ffffffffffffffffffffffffffffffffffffffff021916908373ffffffffffffffffffffffffffffffffffffffff16021790555060028201548160020155600382015481600301556004820160009054906101000a900473ffffffffffffffffffffffffffffffffffffffff168160040160006101000a81548173ffffffffffffffffffffffffffffffffffffffff021916908373ffffffffffffffffffffffffffffffffffffffff1602179055506004820160149054906101000a900460ff168160040160146101000a81548160ff02191690831515021790555050505b8080600101915050611093565b506005805480602002602001604051908101604052809291908181526020016000905b828210156113a857838290600052602060002090600502016040518060c0016040529081600082015481526020016001820160009054906101000a900473ffffffffffffffffffffffffffffffffffffffff1673ffffffffffffffffffffffffffffffffffffffff1673ffffffffffffffffffffffffffffffffffffffff16815260200160028201548152602001600382015481526020016004820160009054906101000a900473ffffffffffffffffffffffffffffffffffffffff1673ffffffffffffffffffffffffffffffffffffffff1673ffffffffffffffffffffffffffffffffffffffff1681526020016004820160149054906101000a900460ff16151515158152505081526020019060010190611291565b50505050905090565b600960008373ffffffffffffffffffffffffffffffffffffffff1673ffffffffffffffffffffffffffffffffffffffff168152602001908152602001600020819080600181540180825580915050600190039060005260206000200160009091909190916101000a81548173ffffffffffffffffffffffffffffffffffffffff021916908373ffffffffffffffffffffffffffffffffffffffff1602179055505050565b60008190506002819080600181540180825580915050600190039060005260206000200160009091909190916101000a81548173ffffffffffffffffffffffffffffffffffffffff021916908373ffffffffffffffffffffffffffffffffffffffff1602179055505050565b60035481565b6002600054141561150d576040517f08c379a00000000000000000000000000000000000000000000000000000000081526004016115049061218e565b60405180910390fd5b600260008190555060008111611558576040517f08c379a000000000000000000000000000000000000000000000000000000000815260040161154f906120ce565b60405180910390fd5b6006600081548092919061156b90612469565b91905055508273ffffffffffffffffffffffffffffffffffffffff166323b872dd3330856040518463ffffffff1660e01b81526004016115ad93929190612038565b600060405180830381600087803b1580156115c757600080fd5b505af11580156115db573d6000803e3d6000fd5b505050506040518060c0016040528060065481526020018473ffffffffffffffffffffffffffffffffffffffff1681526020018381526020018281526020013373ffffffffffffffffffffffffffffffffffffffff168152602001600115158152506007600060065481526020019081526020016000206000820151816000015560208201518160010160006101000a81548173ffffffffffffffffffffffffffffffffffffffff021916908373ffffffffffffffffffffffffffffffffffffffff160217905550604082015181600201556060820151816003015560808201518160040160006101000a81548173ffffffffffffffffffffffffffffffffffffffff021916908373ffffffffffffffffffffffffffffffffffffffff16021790555060a08201518160040160146101000a81548160ff0219169083151502179055509050503373ffffffffffffffffffffffffffffffffffffffff168373ffffffffffffffffffffffffffffffffffffffff167fb54cfb19ffaa1fa935ff42ab669df81eab47ebe90fb3bcb92ace1d123dd176bb60065485856040516117849392919061222a565b60405180910390a36001600081905550505050565b60076020528060005260406000206000915090508060000154908060010160009054906101000a900473ffffffffffffffffffffffffffffffffffffffff16908060020154908060030154908060040160009054906101000a900473ffffffffffffffffffffffffffffffffffffffff16908060040160149054906101000a900460ff16905086565b600060647f000000000000000000000000000000000000000000000000000000000000000061185191906122e4565b606461185d919061236f565b600760008481526020019081526020016000206003015461187e9190612315565b9050919050565b61188d6119e6565b73ffffffffffffffffffffffffffffffffffffffff166118ab611056565b73ffffffffffffffffffffffffffffffffffffffff1614611901576040517f08c379a00000000000000000000000000000000000000000000000000000000081526004016118f89061214e565b60405180910390fd5b600073ffffffffffffffffffffffffffffffffffffffff168173ffffffffffffffffffffffffffffffffffffffff161415611971576040517f08c379a0000000000000000000000000000000000000000000000000000000008152600401611968906120ee565b60405180910390fd5b61197a816119ee565b50565b6000600a60008373ffffffffffffffffffffffffffffffffffffffff1673ffffffffffffffffffffffffffffffffffffffff16815260200190815260200160002060009054906101000a900473ffffffffffffffffffffffffffffffffffffffff169050919050565b600033905090565b6000600160009054906101000a900473ffffffffffffffffffffffffffffffffffffffff16905081600160006101000a81548173ffffffffffffffffffffffffffffffffffffffff021916908373ffffffffffffffffffffffffffffffffffffffff1602179055508173ffffffffffffffffffffffffffffffffffffffff168173ffffffffffffffffffffffffffffffffffffffff167f8be0079c531659141344cd1fd0a4f28419497f9722a3daafe3b4186f6b6457e060405160405180910390a35050565b5080546000825560050290600052602060002090810190611ad59190611ad8565b50565b5b80821115611b65576000808201600090556001820160006101000a81549073ffffffffffffffffffffffffffffffffffffffff0219169055600282016000905560038201600090556004820160006101000a81549073ffffffffffffffffffffffffffffffffffffffff02191690556004820160146101000a81549060ff021916905550600501611ad9565b5090565b600081359050611b7881612655565b92915050565b600081359050611b8d8161266c565b92915050565b600081359050611ba281612683565b92915050565b600081359050611bb78161269a565b92915050565b600081519050611bcc8161269a565b92915050565b600060208284031215611be457600080fd5b6000611bf284828501611b69565b91505092915050565b60008060408385031215611c0e57600080fd5b6000611c1c85828601611b69565b9250506020611c2d85828601611b69565b9150509250929050565b600080600060608486031215611c4c57600080fd5b6000611c5a86828701611b7e565b9350506020611c6b86828701611ba8565b9250506040611c7c86828701611ba8565b9150509250925092565b600060208284031215611c9857600080fd5b6000611ca684828501611b93565b91505092915050565b600060208284031215611cc157600080fd5b6000611ccf84828501611ba8565b91505092915050565b600060208284031215611cea57600080fd5b6000611cf884828501611bbd565b91505092915050565b6000611d0d8383611d4f565b60208301905092915050565b6000611d258383611f69565b60c08301905092915050565b611d3a816123b5565b82525050565b611d49816123b5565b82525050565b611d58816123a3565b82525050565b611d67816123a3565b82525050565b6000611d7882612281565b611d8281856122b1565b9350611d8d83612261565b8060005b83811015611dbe578151611da58882611d01565b9750611db083612297565b925050600181019050611d91565b5085935050505092915050565b6000611dd68261228c565b611de081856122c2565b9350611deb83612271565b8060005b83811015611e1c578151611e038882611d19565b9750611e0e836122a4565b925050600181019050611def565b5085935050505092915050565b611e32816123c7565b82525050565b611e41816123c7565b82525050565b611e5081612421565b82525050565b611e5f81612421565b82525050565b611e6e81612445565b82525050565b6000611e81601f836122d3565b9150611e8c82612510565b602082019050919050565b6000611ea46026836122d3565b9150611eaf82612539565b604082019050919050565b6000611ec76012836122d3565b9150611ed282612588565b602082019050919050565b6000611eea6012836122d3565b9150611ef5826125b1565b602082019050919050565b6000611f0d6020836122d3565b9150611f18826125da565b602082019050919050565b6000611f306010836122d3565b9150611f3b82612603565b602082019050919050565b6000611f53601f836122d3565b9150611f5e8261262c565b602082019050919050565b60c082016000820151611f7f6000850182611fe4565b506020820151611f926020850182611e47565b506040820151611fa56040850182611fe4565b506060820151611fb86060850182611fe4565b506080820151611fcb6080850182611d31565b5060a0820151611fde60a0850182611e29565b50505050565b611fed81612417565b82525050565b611ffc81612417565b82525050565b60006020820190506120176000830184611d5e565b92915050565b60006020820190506120326000830184611d40565b92915050565b600060608201905061204d6000830186611d5e565b61205a6020830185611d5e565b6120676040830184611ff3565b949350505050565b600060208201905081810360008301526120898184611d6d565b905092915050565b600060208201905081810360008301526120ab8184611dcb565b905092915050565b60006020820190506120c86000830184611e65565b92915050565b600060208201905081810360008301526120e781611e74565b9050919050565b6000602082019050818103600083015261210781611e97565b9050919050565b6000602082019050818103600083015261212781611eba565b9050919050565b6000602082019050818103600083015261214781611edd565b9050919050565b6000602082019050818103600083015261216781611f00565b9050919050565b6000602082019050818103600083015261218781611f23565b9050919050565b600060208201905081810360008301526121a781611f46565b9050919050565b60006020820190506121c36000830184611ff3565b92915050565b600060c0820190506121de6000830189611ff3565b6121eb6020830188611e56565b6121f86040830187611ff3565b6122056060830186611ff3565b6122126080830185611d40565b61221f60a0830184611e38565b979650505050505050565b600060608201905061223f6000830186611ff3565b61224c6020830185611ff3565b6122596040830184611ff3565b949350505050565b6000819050602082019050919050565b6000819050602082019050919050565b600081519050919050565b600081519050919050565b6000602082019050919050565b6000602082019050919050565b600082825260208201905092915050565b600082825260208201905092915050565b600082825260208201905092915050565b60006122ef82612417565b91506122fa83612417565b92508261230a576123096124e1565b5b828204905092915050565b600061232082612417565b915061232b83612417565b9250817fffffffffffffffffffffffffffffffffffffffffffffffffffffffffffffffff0483118215151615612364576123636124b2565b5b828202905092915050565b600061237a82612417565b915061238583612417565b925082821015612398576123976124b2565b5b828203905092915050565b60006123ae826123f7565b9050919050565b60006123c0826123f7565b9050919050565b60008115159050919050565b60006123de826123a3565b9050919050565b60006123f0826123a3565b9050919050565b600073ffffffffffffffffffffffffffffffffffffffff82169050919050565b6000819050919050565b600061242c82612433565b9050919050565b600061243e826123f7565b9050919050565b600061245082612457565b9050919050565b6000612462826123f7565b9050919050565b600061247482612417565b91507fffffffffffffffffffffffffffffffffffffffffffffffffffffffffffffffff8214156124a7576124a66124b2565b5b600182019050919050565b7f4e487b7100000000000000000000000000000000000000000000000000000000600052601160045260246000fd5b7f4e487b7100000000000000000000000000000000000000000000000000000000600052601260045260246000fd5b7f5072696365206d7573742062652067726561746572207468616e207a65726f00600082015250565b7f4f776e61626c653a206e6577206f776e657220697320746865207a65726f206160008201527f6464726573730000000000000000000000000000000000000000000000000000602082015250565b7f6974656d206e6f7420666f722073616c65210000000000000000000000000000600082015250565b7f6974656d20646f65736e27742065786973740000000000000000000000000000600082015250565b7f4f776e61626c653a2063616c6c6572206973206e6f7420746865206f776e6572600082015250565b7f6e6f7420656e6f756768206d6f6e657900000000000000000000000000000000600082015250565b7f5265656e7472616e637947756172643a207265656e7472616e742063616c6c00600082015250565b61265e816123a3565b811461266957600080fd5b50565b612675816123d3565b811461268057600080fd5b50565b61268c816123e5565b811461269757600080fd5b50565b6126a381612417565b81146126ae57600080fd5b5056fea2646970667358221220b753be93d95dafad9842a00a8ce639df846f355e0f93be31590a8e691a05c45664736f6c63430008040033",
  "linkReferences": {},
  "deployedLinkReferences": {}
}